{
  "contractName": "Greeter",
  "abi": [
    {
      "inputs": [],
      "payable": false,
      "stateMutability": "nonpayable",
      "type": "constructor",
      "signature": "constructor"
    },
    {
      "constant": true,
      "inputs": [],
      "name": "greet",
      "outputs": [
        {
          "name": "",
          "type": "string"
        }
      ],
      "payable": false,
      "stateMutability": "view",
      "type": "function",
      "signature": "0xcfae3217"
    },
    {
      "constant": false,
      "inputs": [
        {
          "name": "greeting",
          "type": "string"
        }
      ],
      "name": "setGreeting",
      "outputs": [],
      "payable": false,
      "stateMutability": "nonpayable",
      "type": "function",
      "signature": "0xa4136862"
    },
    {
      "constant": true,
      "inputs": [],
      "name": "owner",
      "outputs": [
        {
          "name": "",
          "type": "address"
        }
      ],
      "payable": false,
      "stateMutability": "view",
      "type": "function",
      "signature": "0x8da5cb5b"
    },
    {
      "constant": false,
      "inputs": [],
      "name": "kill",
      "outputs": [],
      "payable": false,
      "stateMutability": "nonpayable",
      "type": "function",
      "signature": "0x41c0e1b5"
    },
    {
      "constant": false,
      "inputs": [],
      "name": "fillArray",
      "outputs": [],
      "payable": false,
      "stateMutability": "nonpayable",
      "type": "function",
      "signature": "0xf460473e"
    },
    {
      "constant": false,
      "inputs": [],
      "name": "setProfile",
      "outputs": [],
      "payable": false,
      "stateMutability": "nonpayable",
      "type": "function",
      "signature": "0x9bd65062"
    },
    {
      "constant": true,
      "inputs": [],
      "name": "getProfile",
      "outputs": [
        {
          "name": "",
          "type": "string"
        }
      ],
      "payable": false,
      "stateMutability": "view",
      "type": "function",
      "signature": "0xd6afc9b1"
    },
    {
      "constant": false,
      "inputs": [
        {
          "name": "NameID",
          "type": "uint256"
        }
      ],
      "name": "payGreeter",
      "outputs": [
        {
          "name": "",
          "type": "uint256"
        }
      ],
      "payable": true,
      "stateMutability": "payable",
      "type": "function",
      "signature": "0x9bfa18a1"
    }
  ],
  "bytecode": "0x608060405234801561001057600080fd5b5033600160006101000a81548173ffffffffffffffffffffffffffffffffffffffff021916908373ffffffffffffffffffffffffffffffffffffffff1602179055506108c8806100616000396000f3fe60806040526004361061008e576000357c0100000000000000000000000000000000000000000000000000000000900463ffffffff16806341c0e1b5146100935780638da5cb5b146100aa5780639bd65062146101015780639bfa18a114610118578063a41368621461015a578063cfae3217146101e0578063d6afc9b114610270578063f460473e14610300575b600080fd5b34801561009f57600080fd5b506100a8610317565b005b3480156100b657600080fd5b506100bf610388565b604051808273ffffffffffffffffffffffffffffffffffffffff1673ffffffffffffffffffffffffffffffffffffffff16815260200191505060405180910390f35b34801561010d57600080fd5b506101166103b2565b005b6101446004803603602081101561012e57600080fd5b81019080803590602001909291905050506104cb565b6040518082815260200191505060405180910390f35b34801561016657600080fd5b506101de6004803603602081101561017d57600080fd5b810190808035906020019064010000000081111561019a57600080fd5b8201836020820111156101ac57600080fd5b803590602001918460018302840111640100000000831117156101ce57600080fd5b90919293919293905050506104d5565b005b3480156101ec57600080fd5b506101f56105b0565b6040518080602001828103825283818151815260200191508051906020019080838360005b8381101561023557808201518184015260208101905061021a565b50505050905090810190601f1680156102625780820380516001836020036101000a031916815260200191505b509250505060405180910390f35b34801561027c57600080fd5b50610285610652565b6040518080602001828103825283818151815260200191508051906020019080838360005b838110156102c55780820151818401526020810190506102aa565b50505050905090810190601f1680156102f25780820380516001836020036101000a031916815260200191505b509250505060405180910390f35b34801561030c57600080fd5b506103156106f7565b005b600160009054906101000a900473ffffffffffffffffffffffffffffffffffffffff1673ffffffffffffffffffffffffffffffffffffffff163373ffffffffffffffffffffffffffffffffffffffff161415610386573373ffffffffffffffffffffffffffffffffffffffff16ff5b565b6000600160009054906101000a900473ffffffffffffffffffffffffffffffffffffffff16905090565b6060604051908101604052806040805190810160405280600381526020017f4a6179000000000000000000000000000000000000000000000000000000000081525081526020016040805190810160405280600781526020017f4761727269636b0000000000000000000000000000000000000000000000000081525081526020016040805190810160405280600681526020017f5379646e657900000000000000000000000000000000000000000000000000008152508152506008600082015181600001908051906020019061048b929190610777565b5060208201518160010190805190602001906104a8929190610777565b5060408201518160020190805190602001906104c5929190610777565b50905050565b6000819050919050565b600160009054906101000a900473ffffffffffffffffffffffffffffffffffffffff1673ffffffffffffffffffffffffffffffffffffffff163373ffffffffffffffffffffffffffffffffffffffff1614151561059a576040517f08c379a00000000000000000000000000000000000000000000000000000000081526004018080602001828103825260158152602001807f4f6e6c79204f776e657220697320616c6c6f776564000000000000000000000081525060200191505060405180910390fd5b8181600091906105ab9291906107f7565b505050565b606060008054600181600116156101000203166002900480601f0160208091040260200160405190810160405280929190818152602001828054600181600116156101000203166002900480156106485780601f1061061d57610100808354040283529160200191610648565b820191906000526020600020905b81548152906001019060200180831161062b57829003601f168201915b5050505050905090565b606060086000018054600181600116156101000203166002900480601f0160208091040260200160405190810160405280929190818152602001828054600181600116156101000203166002900480156106ed5780601f106106c2576101008083540402835291602001916106ed565b820191906000526020600020905b8154815290600101906020018083116106d057829003601f168201915b5050505050905090565b7f54657374310000000000000000000000000000000000000000000000000000006003600060058110151561072857fe5b018190555060028060018154018082558091505090600182039060005260206000200160007f546573743200000000000000000000000000000000000000000000000000000090919091505550565b828054600181600116156101000203166002900490600052602060002090601f016020900481019282601f106107b857805160ff19168380011785556107e6565b828001600101855582156107e6579182015b828111156107e55782518255916020019190600101906107ca565b5b5090506107f39190610877565b5090565b828054600181600116156101000203166002900490600052602060002090601f016020900481019282601f1061083857803560ff1916838001178555610866565b82800160010185558215610866579182015b8281111561086557823582559160200191906001019061084a565b5b5090506108739190610877565b5090565b61089991905b8082111561089557600081600090555060010161087d565b5090565b9056fea165627a7a723058206df949341363b1422ef6291aa6ac6ab1d80f8c93ebfa540e0cc683cd4547ecaa0029",
  "source": "//SPDX -License-Identifier: UNLICENSED\r\npragma solidity >=0.4.0 <0.7.0;\r\n\r\n/*import \"packages/lib/contracts/openzeppelin-solidity/ownership/Ownable.sol\";*/\r\ncontract Greeter {\r\n    string private _greeting;\r\n    address private _owner;\r\n    bytes32[] showArray;\r\n    bytes32[5] ShowFixedArray;\r\n    struct Profile {\r\n        string firstName;\r\n        string LastName;\r\n        string city;\r\n    }\r\n    Profile contact;\r\n\r\n    constructor() public {\r\n        _owner = msg.sender;\r\n    }\r\n\r\n    modifier onlyOwner() {\r\n        require(msg.sender == _owner, \"Only Owner is allowed\");\r\n        _;\r\n    }\r\n\r\n    function greet() external view returns (string memory) {\r\n        return _greeting;\r\n    }\r\n\r\n    function setGreeting(string calldata greeting) external onlyOwner {\r\n        _greeting = greeting;\r\n    }\r\n\r\n    function owner() public view returns (address) {\r\n        return _owner;\r\n    }\r\n\r\n    function kill() public {\r\n        if (msg.sender == _owner) {\r\n            selfdestruct(msg.sender);\r\n        }\r\n    }\r\n\r\n    function fillArray() public {\r\n        ShowFixedArray[0] = \"Test1\";\r\n        showArray.push(\"Test2\");\r\n        return;\r\n    }\r\n\r\n    function setProfile() public {\r\n        contact = Profile(\"Jay\", \"Garrick\", \"Sydney\");\r\n    }\r\n\r\n    function getProfile() public view returns (string memory) {\r\n        return contact.firstName;\r\n    }\r\n    function payGreeter(uint256 NameID) public payable returns (uint256) {\r\n        return NameID;\r\n    }\r\n}\r\n",
  "sourcePath": "C:/Users/Abhinav/Desktop/BlockChain Lecture HandsOn (BSE Lecture)/TruffleClient/contracts/Greeter.sol",
  "compiler": {
    "name": "solc",
    "version": "0.5.0+commit.1d4f565a.Emscripten.clang"
  },
  "schemaVersion": "3.0.2",
  "updatedAt": "2020-07-20T10:10:26.033Z",
  "devdoc": {
    "methods": {}
  },
  "userdoc": {
    "methods": {}
  }
}